{
    "contractName": "Storage",
    "abi": [
        {
            "inputs": [
                {
                    "internalType": "address",
                    "name": "_account",
                    "type": "address"
                }
            ],
            "name": "checkETHBalance",
            "outputs": [
                {
                    "internalType": "uint256",
                    "name": "",
                    "type": "uint256"
                }
            ],
            "stateMutability": "view",
            "type": "function"
        },
        {
            "inputs": [
                {
                    "internalType": "address payable",
                    "name": "_receiver",
                    "type": "address"
                },
                {
                    "internalType": "uint256",
                    "name": "ethAmount",
                    "type": "uint256"
                }
            ],
            "name": "giveEther",
            "outputs": [],
            "stateMutability": "payable",
            "type": "function"
        },
        {
            "inputs": [],
            "name": "retrieve",
            "outputs": [
                {
                    "internalType": "uint256",
                    "name": "",
                    "type": "uint256"
                }
            ],
            "stateMutability": "view",
            "type": "function"
        },
        {
            "inputs": [
                {
                    "internalType": "uint256",
                    "name": "num",
                    "type": "uint256"
                }
            ],
            "name": "store",
            "outputs": [],
            "stateMutability": "nonpayable",
            "type": "function"
        }
    ],
    "bytecode": "608060405234156100105760006000fd5b61024e80610021600039806000f350fe6080604052600436101515610102576000803560e01c630654fbc4811461004657632e64cec1811461006d57636057361d81146100a2576362a35d7281146100cf576100ff565b610051366004610149565b61005b81836101ee565b505081610067836101a8565bf36100ff565b3415610077578182fd5b61008236600461010c565b815461008d836101a8565b806100988383610196565b0381f350506100ff565b34156100ac578182fd5b6100bf6100ba36600461017a565b610229565b816100c9836101a8565bf36100ff565b34156100d9578182fd5b6100e4366004610122565b316100ee836101a8565b806100f98383610196565b0381f350505b50505b60006000fd61024d565b6000818303121561011d5760006000fd5b5b5050565b600060208284031215610133578081fd5b813561013e81610231565b809150505b92915050565b600060006040838503121561015c578081fd5b823561016781610231565b80925050602083013590505b9250929050565b60006020828403121561018b578081fd5b813590505b92915050565b60006020820190508282525b92915050565b60006040519050601f19601f830116810181811067ffffffffffffffff821117156101e357634e487b7160e01b600052604160045260246000fd5b80604052505b919050565b60008215156101fd576108fc90505b6000600060006000866001600160a01b03871686f11515610223573d600060003e3d6000fd5b505b5050565b806000555b50565b6001600160a01b038116811415156102495760006000fd5b5b50565b",
    "sourcePath": "/home/keyboard2543/デスクトップ/self/keyboard2543dapps/keyboard2543dapps-contract/contracts/1_Storage.sol",
    "compiler": {
        "name": "solc",
        "version": "0.8.2+commit.661d1103"
    },
    "functionHashes": {
        "checkETHBalance(address)": "62a35d72",
        "giveEther(address,uint256)": "0654fbc4",
        "retrieve()": "2e64cec1",
        "store(uint256)": "6057361d"
    },
    "gasEstimates": null
}