{
	"data": {
		"bytecode": {
			"linkReferences": {},
			"object": "608060405234801561001057600080fd5b50610e4b806100206000396000f3fe6080604052600436106100705760003560e01c806362a35d721161004e57806362a35d72146100e5578063931c773314610122578063d9290e481461014d578063f8b3bd301461017657610070565b80632e64cec11461007557806356485436146100a05780636057361d146100bc575b600080fd5b34801561008157600080fd5b5061008a6101a1565b604051610097919061059b565b60405180910390f35b6100ba60048036038101906100b5919061061e565b6101aa565b005b3480156100c857600080fd5b506100e360048036038101906100de9190610677565b6101f4565b005b3480156100f157600080fd5b5061010c600480360381019061010791906106e2565b6101fe565b604051610119919061059b565b60405180910390f35b34801561012e57600080fd5b5061013761021f565b6040516101449190610861565b60405180910390f35b34801561015957600080fd5b50610174600480360381019061016f91906108e8565b610335565b005b34801561018257600080fd5b5061018b61044a565b604051610198919061097f565b60405180910390f35b60008054905090565b8073ffffffffffffffffffffffffffffffffffffffff166108fc349081150290604051600060405180830381858888f193505050501580156101f0573d6000803e3d6000fd5b5050565b8060008190555050565b60008173ffffffffffffffffffffffffffffffffffffffff16319050919050565b6060600160003373ffffffffffffffffffffffffffffffffffffffff1673ffffffffffffffffffffffffffffffffffffffff168152602001908152602001600020805480602002602001604051908101604052809291908181526020016000905b8282101561032c57838290600052602060002001805461029f906109d0565b80601f01602080910402602001604051908101604052809291908181526020018280546102cb906109d0565b80156103185780601f106102ed57610100808354040283529160200191610318565b820191906000526020600020905b8154815290600101906020018083116102fb57829003601f168201915b505050505081526020019060010190610280565b50505050905090565b6000828290501161037b576040517f08c379a000000000000000000000000000000000000000000000000000000000815260040161037290610a4d565b60405180910390fd5b600160003373ffffffffffffffffffffffffffffffffffffffff1673ffffffffffffffffffffffffffffffffffffffff1681526020019081526020016000208282909180600181540180825580915050600190039060005260206000200160009091929091929091929091925091826103f5929190610c53565b503373ffffffffffffffffffffffffffffffffffffffff167fca1dee582f4a8505c70ed6d26c4f70752c41ba158875811c950bd46e69f2ab5b838360405161043e929190610d5f565b60405180910390a25050565b6060600160003373ffffffffffffffffffffffffffffffffffffffff1673ffffffffffffffffffffffffffffffffffffffff16815260200190815260200160002060018060003373ffffffffffffffffffffffffffffffffffffffff1673ffffffffffffffffffffffffffffffffffffffff168152602001908152602001600020805490506104d99190610db2565b815481106104ea576104e9610de6565b5b9060005260206000200180546104ff906109d0565b80601f016020809104026020016040519081016040528092919081815260200182805461052b906109d0565b80156105785780601f1061054d57610100808354040283529160200191610578565b820191906000526020600020905b81548152906001019060200180831161055b57829003601f168201915b5050505050905090565b6000819050919050565b61059581610582565b82525050565b60006020820190506105b0600083018461058c565b92915050565b600080fd5b600080fd5b600073ffffffffffffffffffffffffffffffffffffffff82169050919050565b60006105eb826105c0565b9050919050565b6105fb816105e0565b811461060657600080fd5b50565b600081359050610618816105f2565b92915050565b600060208284031215610634576106336105b6565b5b600061064284828501610609565b91505092915050565b61065481610582565b811461065f57600080fd5b50565b6000813590506106718161064b565b92915050565b60006020828403121561068d5761068c6105b6565b5b600061069b84828501610662565b91505092915050565b60006106af826105c0565b9050919050565b6106bf816106a4565b81146106ca57600080fd5b50565b6000813590506106dc816106b6565b92915050565b6000602082840312156106f8576106f76105b6565b5b6000610706848285016106cd565b91505092915050565b600081519050919050565b600082825260208201905092915050565b6000819050602082019050919050565b600081519050919050565b600082825260208201905092915050565b60005b8381101561077557808201518184015260208101905061075a565b60008484015250505050565b6000601f19601f8301169050919050565b600061079d8261073b565b6107a78185610746565b93506107b7818560208601610757565b6107c081610781565b840191505092915050565b60006107d78383610792565b905092915050565b6000602082019050919050565b60006107f78261070f565b610801818561071a565b9350836020820285016108138561072b565b8060005b8581101561084f578484038952815161083085826107cb565b945061083b836107df565b925060208a01995050600181019050610817565b50829750879550505050505092915050565b6000602082019050818103600083015261087b81846107ec565b905092915050565b600080fd5b600080fd5b600080fd5b60008083601f8401126108a8576108a7610883565b5b8235905067ffffffffffffffff8111156108c5576108c4610888565b5b6020830191508360018202830111156108e1576108e061088d565b5b9250929050565b600080602083850312156108ff576108fe6105b6565b5b600083013567ffffffffffffffff81111561091d5761091c6105bb565b5b61092985828601610892565b92509250509250929050565b600082825260208201905092915050565b60006109518261073b565b61095b8185610935565b935061096b818560208601610757565b61097481610781565b840191505092915050565b600060208201905081810360008301526109998184610946565b905092915050565b7f4e487b7100000000000000000000000000000000000000000000000000000000600052602260045260246000fd5b600060028204905060018216806109e857607f821691505b6020821081036109fb576109fa6109a1565b5b50919050565b7f537472696e672063616e6e6f7420626520656d70747900000000000000000000600082015250565b6000610a37601683610935565b9150610a4282610a01565b602082019050919050565b60006020820190508181036000830152610a6681610a2a565b9050919050565b600082905092915050565b7f4e487b7100000000000000000000000000000000000000000000000000000000600052604160045260246000fd5b60008190508160005260206000209050919050565b60006020601f8301049050919050565b600082821b905092915050565b600060088302610b097fffffffffffffffffffffffffffffffffffffffffffffffffffffffffffffffff82610acc565b610b138683610acc565b95508019841693508086168417925050509392505050565b6000819050919050565b6000610b50610b4b610b4684610582565b610b2b565b610582565b9050919050565b6000819050919050565b610b6a83610b35565b610b7e610b7682610b57565b848454610ad9565b825550505050565b600090565b610b93610b86565b610b9e818484610b61565b505050565b5b81811015610bc257610bb7600082610b8b565b600181019050610ba4565b5050565b601f821115610c0757610bd881610aa7565b610be184610abc565b81016020851015610bf0578190505b610c04610bfc85610abc565b830182610ba3565b50505b505050565b600082821c905092915050565b6000610c2a60001984600802610c0c565b1980831691505092915050565b6000610c438383610c19565b9150826002028217905092915050565b610c5d8383610a6d565b67ffffffffffffffff811115610c7657610c75610a78565b5b610c8082546109d0565b610c8b828285610bc6565b6000601f831160018114610cba5760008415610ca8578287013590505b610cb28582610c37565b865550610d1a565b601f198416610cc886610aa7565b60005b82811015610cf057848901358255600182019150602085019450602081019050610ccb565b86831015610d0d5784890135610d09601f891682610c19565b8355505b6001600288020188555050505b50505050505050565b82818337600083830152505050565b6000610d3e8385610935565b9350610d4b838584610d23565b610d5483610781565b840190509392505050565b60006020820190508181036000830152610d7a818486610d32565b90509392505050565b7f4e487b7100000000000000000000000000000000000000000000000000000000600052601160045260246000fd5b6000610dbd82610582565b9150610dc883610582565b9250828203905081811115610de057610ddf610d83565b5b92915050565b7f4e487b7100000000000000000000000000000000000000000000000000000000600052603260045260246000fdfea264697066735822122033fef93342e0a1f1452fffee6c566b3bc26f0fa8402bbb746fa4941d0134f45c64736f6c63430008130033",
			"opcodes": "PUSH1 0x80 PUSH1 0x40 MSTORE CALLVALUE DUP1 ISZERO PUSH2 0x10 JUMPI PUSH1 0x0 DUP1 REVERT JUMPDEST POP PUSH2 0xE4B DUP1 PUSH2 0x20 PUSH1 0x0 CODECOPY PUSH1 0x0 RETURN INVALID PUSH1 0x80 PUSH1 0x40 MSTORE PUSH1 0x4 CALLDATASIZE LT PUSH2 0x70 JUMPI PUSH1 0x0 CALLDATALOAD PUSH1 0xE0 SHR DUP1 PUSH4 0x62A35D72 GT PUSH2 0x4E JUMPI DUP1 PUSH4 0x62A35D72 EQ PUSH2 0xE5 JUMPI DUP1 PUSH4 0x931C7733 EQ PUSH2 0x122 JUMPI DUP1 PUSH4 0xD9290E48 EQ PUSH2 0x14D JUMPI DUP1 PUSH4 0xF8B3BD30 EQ PUSH2 0x176 JUMPI PUSH2 0x70 JUMP JUMPDEST DUP1 PUSH4 0x2E64CEC1 EQ PUSH2 0x75 JUMPI DUP1 PUSH4 0x56485436 EQ PUSH2 0xA0 JUMPI DUP1 PUSH4 0x6057361D EQ PUSH2 0xBC JUMPI JUMPDEST PUSH1 0x0 DUP1 REVERT JUMPDEST CALLVALUE DUP1 ISZERO PUSH2 0x81 JUMPI PUSH1 0x0 DUP1 REVERT JUMPDEST POP PUSH2 0x8A PUSH2 0x1A1 JUMP JUMPDEST PUSH1 0x40 MLOAD PUSH2 0x97 SWAP2 SWAP1 PUSH2 0x59B JUMP JUMPDEST PUSH1 0x40 MLOAD DUP1 SWAP2 SUB SWAP1 RETURN JUMPDEST PUSH2 0xBA PUSH1 0x4 DUP1 CALLDATASIZE SUB DUP2 ADD SWAP1 PUSH2 0xB5 SWAP2 SWAP1 PUSH2 0x61E JUMP JUMPDEST PUSH2 0x1AA JUMP JUMPDEST STOP JUMPDEST CALLVALUE DUP1 ISZERO PUSH2 0xC8 JUMPI PUSH1 0x0 DUP1 REVERT JUMPDEST POP PUSH2 0xE3 PUSH1 0x4 DUP1 CALLDATASIZE SUB DUP2 ADD SWAP1 PUSH2 0xDE SWAP2 SWAP1 PUSH2 0x677 JUMP JUMPDEST PUSH2 0x1F4 JUMP JUMPDEST STOP JUMPDEST CALLVALUE DUP1 ISZERO PUSH2 0xF1 JUMPI PUSH1 0x0 DUP1 REVERT JUMPDEST POP PUSH2 0x10C PUSH1 0x4 DUP1 CALLDATASIZE SUB DUP2 ADD SWAP1 PUSH2 0x107 SWAP2 SWAP1 PUSH2 0x6E2 JUMP JUMPDEST PUSH2 0x1FE JUMP JUMPDEST PUSH1 0x40 MLOAD PUSH2 0x119 SWAP2 SWAP1 PUSH2 0x59B JUMP JUMPDEST PUSH1 0x40 MLOAD DUP1 SWAP2 SUB SWAP1 RETURN JUMPDEST CALLVALUE DUP1 ISZERO PUSH2 0x12E JUMPI PUSH1 0x0 DUP1 REVERT JUMPDEST POP PUSH2 0x137 PUSH2 0x21F JUMP JUMPDEST PUSH1 0x40 MLOAD PUSH2 0x144 SWAP2 SWAP1 PUSH2 0x861 JUMP JUMPDEST PUSH1 0x40 MLOAD DUP1 SWAP2 SUB SWAP1 RETURN JUMPDEST CALLVALUE DUP1 ISZERO PUSH2 0x159 JUMPI PUSH1 0x0 DUP1 REVERT JUMPDEST POP PUSH2 0x174 PUSH1 0x4 DUP1 CALLDATASIZE SUB DUP2 ADD SWAP1 PUSH2 0x16F SWAP2 SWAP1 PUSH2 0x8E8 JUMP JUMPDEST PUSH2 0x335 JUMP JUMPDEST STOP JUMPDEST CALLVALUE DUP1 ISZERO PUSH2 0x182 JUMPI PUSH1 0x0 DUP1 REVERT JUMPDEST POP PUSH2 0x18B PUSH2 0x44A JUMP JUMPDEST PUSH1 0x40 MLOAD PUSH2 0x198 SWAP2 SWAP1 PUSH2 0x97F JUMP JUMPDEST PUSH1 0x40 MLOAD DUP1 SWAP2 SUB SWAP1 RETURN JUMPDEST PUSH1 0x0 DUP1 SLOAD SWAP1 POP SWAP1 JUMP JUMPDEST DUP1 PUSH20 0xFFFFFFFFFFFFFFFFFFFFFFFFFFFFFFFFFFFFFFFF AND PUSH2 0x8FC CALLVALUE SWAP1 DUP2 ISZERO MUL SWAP1 PUSH1 0x40 MLOAD PUSH1 0x0 PUSH1 0x40 MLOAD DUP1 DUP4 SUB DUP2 DUP6 DUP9 DUP9 CALL SWAP4 POP POP POP POP ISZERO DUP1 ISZERO PUSH2 0x1F0 JUMPI RETURNDATASIZE PUSH1 0x0 DUP1 RETURNDATACOPY RETURNDATASIZE PUSH1 0x0 REVERT JUMPDEST POP POP JUMP JUMPDEST DUP1 PUSH1 0x0 DUP2 SWAP1 SSTORE POP POP JUMP JUMPDEST PUSH1 0x0 DUP2 PUSH20 0xFFFFFFFFFFFFFFFFFFFFFFFFFFFFFFFFFFFFFFFF AND BALANCE SWAP1 POP SWAP2 SWAP1 POP JUMP JUMPDEST PUSH1 0x60 PUSH1 0x1 PUSH1 0x0 CALLER PUSH20 0xFFFFFFFFFFFFFFFFFFFFFFFFFFFFFFFFFFFFFFFF AND PUSH20 0xFFFFFFFFFFFFFFFFFFFFFFFFFFFFFFFFFFFFFFFF AND DUP2 MSTORE PUSH1 0x20 ADD SWAP1 DUP2 MSTORE PUSH1 0x20 ADD PUSH1 0x0 KECCAK256 DUP1 SLOAD DUP1 PUSH1 0x20 MUL PUSH1 0x20 ADD PUSH1 0x40 MLOAD SWAP1 DUP2 ADD PUSH1 0x40 MSTORE DUP1 SWAP3 SWAP2 SWAP1 DUP2 DUP2 MSTORE PUSH1 0x20 ADD PUSH1 0x0 SWAP1 JUMPDEST DUP3 DUP3 LT ISZERO PUSH2 0x32C JUMPI DUP4 DUP3 SWAP1 PUSH1 0x0 MSTORE PUSH1 0x20 PUSH1 0x0 KECCAK256 ADD DUP1 SLOAD PUSH2 0x29F SWAP1 PUSH2 0x9D0 JUMP JUMPDEST DUP1 PUSH1 0x1F ADD PUSH1 0x20 DUP1 SWAP2 DIV MUL PUSH1 0x20 ADD PUSH1 0x40 MLOAD SWAP1 DUP2 ADD PUSH1 0x40 MSTORE DUP1 SWAP3 SWAP2 SWAP1 DUP2 DUP2 MSTORE PUSH1 0x20 ADD DUP3 DUP1 SLOAD PUSH2 0x2CB SWAP1 PUSH2 0x9D0 JUMP JUMPDEST DUP1 ISZERO PUSH2 0x318 JUMPI DUP1 PUSH1 0x1F LT PUSH2 0x2ED JUMPI PUSH2 0x100 DUP1 DUP4 SLOAD DIV MUL DUP4 MSTORE SWAP2 PUSH1 0x20 ADD SWAP2 PUSH2 0x318 JUMP JUMPDEST DUP3 ADD SWAP2 SWAP1 PUSH1 0x0 MSTORE PUSH1 0x20 PUSH1 0x0 KECCAK256 SWAP1 JUMPDEST DUP2 SLOAD DUP2 MSTORE SWAP1 PUSH1 0x1 ADD SWAP1 PUSH1 0x20 ADD DUP1 DUP4 GT PUSH2 0x2FB JUMPI DUP3 SWAP1 SUB PUSH1 0x1F AND DUP3 ADD SWAP2 JUMPDEST POP POP POP POP POP DUP2 MSTORE PUSH1 0x20 ADD SWAP1 PUSH1 0x1 ADD SWAP1 PUSH2 0x280 JUMP JUMPDEST POP POP POP POP SWAP1 POP SWAP1 JUMP JUMPDEST PUSH1 0x0 DUP3 DUP3 SWAP1 POP GT PUSH2 0x37B JUMPI PUSH1 0x40 MLOAD PUSH32 0x8C379A000000000000000000000000000000000000000000000000000000000 DUP2 MSTORE PUSH1 0x4 ADD PUSH2 0x372 SWAP1 PUSH2 0xA4D JUMP JUMPDEST PUSH1 0x40 MLOAD DUP1 SWAP2 SUB SWAP1 REVERT JUMPDEST PUSH1 0x1 PUSH1 0x0 CALLER PUSH20 0xFFFFFFFFFFFFFFFFFFFFFFFFFFFFFFFFFFFFFFFF AND PUSH20 0xFFFFFFFFFFFFFFFFFFFFFFFFFFFFFFFFFFFFFFFF AND DUP2 MSTORE PUSH1 0x20 ADD SWAP1 DUP2 MSTORE PUSH1 0x20 ADD PUSH1 0x0 KECCAK256 DUP3 DUP3 SWAP1 SWAP2 DUP1 PUSH1 0x1 DUP2 SLOAD ADD DUP1 DUP3 SSTORE DUP1 SWAP2 POP POP PUSH1 0x1 SWAP1 SUB SWAP1 PUSH1 0x0 MSTORE PUSH1 0x20 PUSH1 0x0 KECCAK256 ADD PUSH1 0x0 SWAP1 SWAP2 SWAP3 SWAP1 SWAP2 SWAP3 SWAP1 SWAP2 SWAP3 SWAP1 SWAP2 SWAP3 POP SWAP2 DUP3 PUSH2 0x3F5 SWAP3 SWAP2 SWAP1 PUSH2 0xC53 JUMP JUMPDEST POP CALLER PUSH20 0xFFFFFFFFFFFFFFFFFFFFFFFFFFFFFFFFFFFFFFFF AND PUSH32 0xCA1DEE582F4A8505C70ED6D26C4F70752C41BA158875811C950BD46E69F2AB5B DUP4 DUP4 PUSH1 0x40 MLOAD PUSH2 0x43E SWAP3 SWAP2 SWAP1 PUSH2 0xD5F JUMP JUMPDEST PUSH1 0x40 MLOAD DUP1 SWAP2 SUB SWAP1 LOG2 POP POP JUMP JUMPDEST PUSH1 0x60 PUSH1 0x1 PUSH1 0x0 CALLER PUSH20 0xFFFFFFFFFFFFFFFFFFFFFFFFFFFFFFFFFFFFFFFF AND PUSH20 0xFFFFFFFFFFFFFFFFFFFFFFFFFFFFFFFFFFFFFFFF AND DUP2 MSTORE PUSH1 0x20 ADD SWAP1 DUP2 MSTORE PUSH1 0x20 ADD PUSH1 0x0 KECCAK256 PUSH1 0x1 DUP1 PUSH1 0x0 CALLER PUSH20 0xFFFFFFFFFFFFFFFFFFFFFFFFFFFFFFFFFFFFFFFF AND PUSH20 0xFFFFFFFFFFFFFFFFFFFFFFFFFFFFFFFFFFFFFFFF AND DUP2 MSTORE PUSH1 0x20 ADD SWAP1 DUP2 MSTORE PUSH1 0x20 ADD PUSH1 0x0 KECCAK256 DUP1 SLOAD SWAP1 POP PUSH2 0x4D9 SWAP2 SWAP1 PUSH2 0xDB2 JUMP JUMPDEST DUP2 SLOAD DUP2 LT PUSH2 0x4EA JUMPI PUSH2 0x4E9 PUSH2 0xDE6 JUMP JUMPDEST JUMPDEST SWAP1 PUSH1 0x0 MSTORE PUSH1 0x20 PUSH1 0x0 KECCAK256 ADD DUP1 SLOAD PUSH2 0x4FF SWAP1 PUSH2 0x9D0 JUMP JUMPDEST DUP1 PUSH1 0x1F ADD PUSH1 0x20 DUP1 SWAP2 DIV MUL PUSH1 0x20 ADD PUSH1 0x40 MLOAD SWAP1 DUP2 ADD PUSH1 0x40 MSTORE DUP1 SWAP3 SWAP2 SWAP1 DUP2 DUP2 MSTORE PUSH1 0x20 ADD DUP3 DUP1 SLOAD PUSH2 0x52B SWAP1 PUSH2 0x9D0 JUMP JUMPDEST DUP1 ISZERO PUSH2 0x578 JUMPI DUP1 PUSH1 0x1F LT PUSH2 0x54D JUMPI PUSH2 0x100 DUP1 DUP4 SLOAD DIV MUL DUP4 MSTORE SWAP2 PUSH1 0x20 ADD SWAP2 PUSH2 0x578 JUMP JUMPDEST DUP3 ADD SWAP2 SWAP1 PUSH1 0x0 MSTORE PUSH1 0x20 PUSH1 0x0 KECCAK256 SWAP1 JUMPDEST DUP2 SLOAD DUP2 MSTORE SWAP1 PUSH1 0x1 ADD SWAP1 PUSH1 0x20 ADD DUP1 DUP4 GT PUSH2 0x55B JUMPI DUP3 SWAP1 SUB PUSH1 0x1F AND DUP3 ADD SWAP2 JUMPDEST POP POP POP POP POP SWAP1 POP SWAP1 JUMP JUMPDEST PUSH1 0x0 DUP2 SWAP1 POP SWAP2 SWAP1 POP JUMP JUMPDEST PUSH2 0x595 DUP2 PUSH2 0x582 JUMP JUMPDEST DUP3 MSTORE POP POP JUMP JUMPDEST PUSH1 0x0 PUSH1 0x20 DUP3 ADD SWAP1 POP PUSH2 0x5B0 PUSH1 0x0 DUP4 ADD DUP5 PUSH2 0x58C JUMP JUMPDEST SWAP3 SWAP2 POP POP JUMP JUMPDEST PUSH1 0x0 DUP1 REVERT JUMPDEST PUSH1 0x0 DUP1 REVERT JUMPDEST PUSH1 0x0 PUSH20 0xFFFFFFFFFFFFFFFFFFFFFFFFFFFFFFFFFFFFFFFF DUP3 AND SWAP1 POP SWAP2 SWAP1 POP JUMP JUMPDEST PUSH1 0x0 PUSH2 0x5EB DUP3 PUSH2 0x5C0 JUMP JUMPDEST SWAP1 POP SWAP2 SWAP1 POP JUMP JUMPDEST PUSH2 0x5FB DUP2 PUSH2 0x5E0 JUMP JUMPDEST DUP2 EQ PUSH2 0x606 JUMPI PUSH1 0x0 DUP1 REVERT JUMPDEST POP JUMP JUMPDEST PUSH1 0x0 DUP2 CALLDATALOAD SWAP1 POP PUSH2 0x618 DUP2 PUSH2 0x5F2 JUMP JUMPDEST SWAP3 SWAP2 POP POP JUMP JUMPDEST PUSH1 0x0 PUSH1 0x20 DUP3 DUP5 SUB SLT ISZERO PUSH2 0x634 JUMPI PUSH2 0x633 PUSH2 0x5B6 JUMP JUMPDEST JUMPDEST PUSH1 0x0 PUSH2 0x642 DUP5 DUP3 DUP6 ADD PUSH2 0x609 JUMP JUMPDEST SWAP2 POP POP SWAP3 SWAP2 POP POP JUMP JUMPDEST PUSH2 0x654 DUP2 PUSH2 0x582 JUMP JUMPDEST DUP2 EQ PUSH2 0x65F JUMPI PUSH1 0x0 DUP1 REVERT JUMPDEST POP JUMP JUMPDEST PUSH1 0x0 DUP2 CALLDATALOAD SWAP1 POP PUSH2 0x671 DUP2 PUSH2 0x64B JUMP JUMPDEST SWAP3 SWAP2 POP POP JUMP JUMPDEST PUSH1 0x0 PUSH1 0x20 DUP3 DUP5 SUB SLT ISZERO PUSH2 0x68D JUMPI PUSH2 0x68C PUSH2 0x5B6 JUMP JUMPDEST JUMPDEST PUSH1 0x0 PUSH2 0x69B DUP5 DUP3 DUP6 ADD PUSH2 0x662 JUMP JUMPDEST SWAP2 POP POP SWAP3 SWAP2 POP POP JUMP JUMPDEST PUSH1 0x0 PUSH2 0x6AF DUP3 PUSH2 0x5C0 JUMP JUMPDEST SWAP1 POP SWAP2 SWAP1 POP JUMP JUMPDEST PUSH2 0x6BF DUP2 PUSH2 0x6A4 JUMP JUMPDEST DUP2 EQ PUSH2 0x6CA JUMPI PUSH1 0x0 DUP1 REVERT JUMPDEST POP JUMP JUMPDEST PUSH1 0x0 DUP2 CALLDATALOAD SWAP1 POP PUSH2 0x6DC DUP2 PUSH2 0x6B6 JUMP JUMPDEST SWAP3 SWAP2 POP POP JUMP JUMPDEST PUSH1 0x0 PUSH1 0x20 DUP3 DUP5 SUB SLT ISZERO PUSH2 0x6F8 JUMPI PUSH2 0x6F7 PUSH2 0x5B6 JUMP JUMPDEST JUMPDEST PUSH1 0x0 PUSH2 0x706 DUP5 DUP3 DUP6 ADD PUSH2 0x6CD JUMP JUMPDEST SWAP2 POP POP SWAP3 SWAP2 POP POP JUMP JUMPDEST PUSH1 0x0 DUP2 MLOAD SWAP1 POP SWAP2 SWAP1 POP JUMP JUMPDEST PUSH1 0x0 DUP3 DUP3 MSTORE PUSH1 0x20 DUP3 ADD SWAP1 POP SWAP3 SWAP2 POP POP JUMP JUMPDEST PUSH1 0x0 DUP2 SWAP1 POP PUSH1 0x20 DUP3 ADD SWAP1 POP SWAP2 SWAP1 POP JUMP JUMPDEST PUSH1 0x0 DUP2 MLOAD SWAP1 POP SWAP2 SWAP1 POP JUMP JUMPDEST PUSH1 0x0 DUP3 DUP3 MSTORE PUSH1 0x20 DUP3 ADD SWAP1 POP SWAP3 SWAP2 POP POP JUMP JUMPDEST PUSH1 0x0 JUMPDEST DUP4 DUP2 LT ISZERO PUSH2 0x775 JUMPI DUP1 DUP3 ADD MLOAD DUP2 DUP5 ADD MSTORE PUSH1 0x20 DUP2 ADD SWAP1 POP PUSH2 0x75A JUMP JUMPDEST PUSH1 0x0 DUP5 DUP5 ADD MSTORE POP POP POP POP JUMP JUMPDEST PUSH1 0x0 PUSH1 0x1F NOT PUSH1 0x1F DUP4 ADD AND SWAP1 POP SWAP2 SWAP1 POP JUMP JUMPDEST PUSH1 0x0 PUSH2 0x79D DUP3 PUSH2 0x73B JUMP JUMPDEST PUSH2 0x7A7 DUP2 DUP6 PUSH2 0x746 JUMP JUMPDEST SWAP4 POP PUSH2 0x7B7 DUP2 DUP6 PUSH1 0x20 DUP7 ADD PUSH2 0x757 JUMP JUMPDEST PUSH2 0x7C0 DUP2 PUSH2 0x781 JUMP JUMPDEST DUP5 ADD SWAP2 POP POP SWAP3 SWAP2 POP POP JUMP JUMPDEST PUSH1 0x0 PUSH2 0x7D7 DUP4 DUP4 PUSH2 0x792 JUMP JUMPDEST SWAP1 POP SWAP3 SWAP2 POP POP JUMP JUMPDEST PUSH1 0x0 PUSH1 0x20 DUP3 ADD SWAP1 POP SWAP2 SWAP1 POP JUMP JUMPDEST PUSH1 0x0 PUSH2 0x7F7 DUP3 PUSH2 0x70F JUMP JUMPDEST PUSH2 0x801 DUP2 DUP6 PUSH2 0x71A JUMP JUMPDEST SWAP4 POP DUP4 PUSH1 0x20 DUP3 MUL DUP6 ADD PUSH2 0x813 DUP6 PUSH2 0x72B JUMP JUMPDEST DUP1 PUSH1 0x0 JUMPDEST DUP6 DUP2 LT ISZERO PUSH2 0x84F JUMPI DUP5 DUP5 SUB DUP10 MSTORE DUP2 MLOAD PUSH2 0x830 DUP6 DUP3 PUSH2 0x7CB JUMP JUMPDEST SWAP5 POP PUSH2 0x83B DUP4 PUSH2 0x7DF JUMP JUMPDEST SWAP3 POP PUSH1 0x20 DUP11 ADD SWAP10 POP POP PUSH1 0x1 DUP2 ADD SWAP1 POP PUSH2 0x817 JUMP JUMPDEST POP DUP3 SWAP8 POP DUP8 SWAP6 POP POP POP POP POP POP SWAP3 SWAP2 POP POP JUMP JUMPDEST PUSH1 0x0 PUSH1 0x20 DUP3 ADD SWAP1 POP DUP2 DUP2 SUB PUSH1 0x0 DUP4 ADD MSTORE PUSH2 0x87B DUP2 DUP5 PUSH2 0x7EC JUMP JUMPDEST SWAP1 POP SWAP3 SWAP2 POP POP JUMP JUMPDEST PUSH1 0x0 DUP1 REVERT JUMPDEST PUSH1 0x0 DUP1 REVERT JUMPDEST PUSH1 0x0 DUP1 REVERT JUMPDEST PUSH1 0x0 DUP1 DUP4 PUSH1 0x1F DUP5 ADD SLT PUSH2 0x8A8 JUMPI PUSH2 0x8A7 PUSH2 0x883 JUMP JUMPDEST JUMPDEST DUP3 CALLDATALOAD SWAP1 POP PUSH8 0xFFFFFFFFFFFFFFFF DUP2 GT ISZERO PUSH2 0x8C5 JUMPI PUSH2 0x8C4 PUSH2 0x888 JUMP JUMPDEST JUMPDEST PUSH1 0x20 DUP4 ADD SWAP2 POP DUP4 PUSH1 0x1 DUP3 MUL DUP4 ADD GT ISZERO PUSH2 0x8E1 JUMPI PUSH2 0x8E0 PUSH2 0x88D JUMP JUMPDEST JUMPDEST SWAP3 POP SWAP3 SWAP1 POP JUMP JUMPDEST PUSH1 0x0 DUP1 PUSH1 0x20 DUP4 DUP6 SUB SLT ISZERO PUSH2 0x8FF JUMPI PUSH2 0x8FE PUSH2 0x5B6 JUMP JUMPDEST JUMPDEST PUSH1 0x0 DUP4 ADD CALLDATALOAD PUSH8 0xFFFFFFFFFFFFFFFF DUP2 GT ISZERO PUSH2 0x91D JUMPI PUSH2 0x91C PUSH2 0x5BB JUMP JUMPDEST JUMPDEST PUSH2 0x929 DUP6 DUP3 DUP7 ADD PUSH2 0x892 JUMP JUMPDEST SWAP3 POP SWAP3 POP POP SWAP3 POP SWAP3 SWAP1 POP JUMP JUMPDEST PUSH1 0x0 DUP3 DUP3 MSTORE PUSH1 0x20 DUP3 ADD SWAP1 POP SWAP3 SWAP2 POP POP JUMP JUMPDEST PUSH1 0x0 PUSH2 0x951 DUP3 PUSH2 0x73B JUMP JUMPDEST PUSH2 0x95B DUP2 DUP6 PUSH2 0x935 JUMP JUMPDEST SWAP4 POP PUSH2 0x96B DUP2 DUP6 PUSH1 0x20 DUP7 ADD PUSH2 0x757 JUMP JUMPDEST PUSH2 0x974 DUP2 PUSH2 0x781 JUMP JUMPDEST DUP5 ADD SWAP2 POP POP SWAP3 SWAP2 POP POP JUMP JUMPDEST PUSH1 0x0 PUSH1 0x20 DUP3 ADD SWAP1 POP DUP2 DUP2 SUB PUSH1 0x0 DUP4 ADD MSTORE PUSH2 0x999 DUP2 DUP5 PUSH2 0x946 JUMP JUMPDEST SWAP1 POP SWAP3 SWAP2 POP POP JUMP JUMPDEST PUSH32 0x4E487B7100000000000000000000000000000000000000000000000000000000 PUSH1 0x0 MSTORE PUSH1 0x22 PUSH1 0x4 MSTORE PUSH1 0x24 PUSH1 0x0 REVERT JUMPDEST PUSH1 0x0 PUSH1 0x2 DUP3 DIV SWAP1 POP PUSH1 0x1 DUP3 AND DUP1 PUSH2 0x9E8 JUMPI PUSH1 0x7F DUP3 AND SWAP2 POP JUMPDEST PUSH1 0x20 DUP3 LT DUP2 SUB PUSH2 0x9FB JUMPI PUSH2 0x9FA PUSH2 0x9A1 JUMP JUMPDEST JUMPDEST POP SWAP2 SWAP1 POP JUMP JUMPDEST PUSH32 0x537472696E672063616E6E6F7420626520656D70747900000000000000000000 PUSH1 0x0 DUP3 ADD MSTORE POP JUMP JUMPDEST PUSH1 0x0 PUSH2 0xA37 PUSH1 0x16 DUP4 PUSH2 0x935 JUMP JUMPDEST SWAP2 POP PUSH2 0xA42 DUP3 PUSH2 0xA01 JUMP JUMPDEST PUSH1 0x20 DUP3 ADD SWAP1 POP SWAP2 SWAP1 POP JUMP JUMPDEST PUSH1 0x0 PUSH1 0x20 DUP3 ADD SWAP1 POP DUP2 DUP2 SUB PUSH1 0x0 DUP4 ADD MSTORE PUSH2 0xA66 DUP2 PUSH2 0xA2A JUMP JUMPDEST SWAP1 POP SWAP2 SWAP1 POP JUMP JUMPDEST PUSH1 0x0 DUP3 SWAP1 POP SWAP3 SWAP2 POP POP JUMP JUMPDEST PUSH32 0x4E487B7100000000000000000000000000000000000000000000000000000000 PUSH1 0x0 MSTORE PUSH1 0x41 PUSH1 0x4 MSTORE PUSH1 0x24 PUSH1 0x0 REVERT JUMPDEST PUSH1 0x0 DUP2 SWAP1 POP DUP2 PUSH1 0x0 MSTORE PUSH1 0x20 PUSH1 0x0 KECCAK256 SWAP1 POP SWAP2 SWAP1 POP JUMP JUMPDEST PUSH1 0x0 PUSH1 0x20 PUSH1 0x1F DUP4 ADD DIV SWAP1 POP SWAP2 SWAP1 POP JUMP JUMPDEST PUSH1 0x0 DUP3 DUP3 SHL SWAP1 POP SWAP3 SWAP2 POP POP JUMP JUMPDEST PUSH1 0x0 PUSH1 0x8 DUP4 MUL PUSH2 0xB09 PUSH32 0xFFFFFFFFFFFFFFFFFFFFFFFFFFFFFFFFFFFFFFFFFFFFFFFFFFFFFFFFFFFFFFFF DUP3 PUSH2 0xACC JUMP JUMPDEST PUSH2 0xB13 DUP7 DUP4 PUSH2 0xACC JUMP JUMPDEST SWAP6 POP DUP1 NOT DUP5 AND SWAP4 POP DUP1 DUP7 AND DUP5 OR SWAP3 POP POP POP SWAP4 SWAP3 POP POP POP JUMP JUMPDEST PUSH1 0x0 DUP2 SWAP1 POP SWAP2 SWAP1 POP JUMP JUMPDEST PUSH1 0x0 PUSH2 0xB50 PUSH2 0xB4B PUSH2 0xB46 DUP5 PUSH2 0x582 JUMP JUMPDEST PUSH2 0xB2B JUMP JUMPDEST PUSH2 0x582 JUMP JUMPDEST SWAP1 POP SWAP2 SWAP1 POP JUMP JUMPDEST PUSH1 0x0 DUP2 SWAP1 POP SWAP2 SWAP1 POP JUMP JUMPDEST PUSH2 0xB6A DUP4 PUSH2 0xB35 JUMP JUMPDEST PUSH2 0xB7E PUSH2 0xB76 DUP3 PUSH2 0xB57 JUMP JUMPDEST DUP5 DUP5 SLOAD PUSH2 0xAD9 JUMP JUMPDEST DUP3 SSTORE POP POP POP POP JUMP JUMPDEST PUSH1 0x0 SWAP1 JUMP JUMPDEST PUSH2 0xB93 PUSH2 0xB86 JUMP JUMPDEST PUSH2 0xB9E DUP2 DUP5 DUP5 PUSH2 0xB61 JUMP JUMPDEST POP POP POP JUMP JUMPDEST JUMPDEST DUP2 DUP2 LT ISZERO PUSH2 0xBC2 JUMPI PUSH2 0xBB7 PUSH1 0x0 DUP3 PUSH2 0xB8B JUMP JUMPDEST PUSH1 0x1 DUP2 ADD SWAP1 POP PUSH2 0xBA4 JUMP JUMPDEST POP POP JUMP JUMPDEST PUSH1 0x1F DUP3 GT ISZERO PUSH2 0xC07 JUMPI PUSH2 0xBD8 DUP2 PUSH2 0xAA7 JUMP JUMPDEST PUSH2 0xBE1 DUP5 PUSH2 0xABC JUMP JUMPDEST DUP2 ADD PUSH1 0x20 DUP6 LT ISZERO PUSH2 0xBF0 JUMPI DUP2 SWAP1 POP JUMPDEST PUSH2 0xC04 PUSH2 0xBFC DUP6 PUSH2 0xABC JUMP JUMPDEST DUP4 ADD DUP3 PUSH2 0xBA3 JUMP JUMPDEST POP POP JUMPDEST POP POP POP JUMP JUMPDEST PUSH1 0x0 DUP3 DUP3 SHR SWAP1 POP SWAP3 SWAP2 POP POP JUMP JUMPDEST PUSH1 0x0 PUSH2 0xC2A PUSH1 0x0 NOT DUP5 PUSH1 0x8 MUL PUSH2 0xC0C JUMP JUMPDEST NOT DUP1 DUP4 AND SWAP2 POP POP SWAP3 SWAP2 POP POP JUMP JUMPDEST PUSH1 0x0 PUSH2 0xC43 DUP4 DUP4 PUSH2 0xC19 JUMP JUMPDEST SWAP2 POP DUP3 PUSH1 0x2 MUL DUP3 OR SWAP1 POP SWAP3 SWAP2 POP POP JUMP JUMPDEST PUSH2 0xC5D DUP4 DUP4 PUSH2 0xA6D JUMP JUMPDEST PUSH8 0xFFFFFFFFFFFFFFFF DUP2 GT ISZERO PUSH2 0xC76 JUMPI PUSH2 0xC75 PUSH2 0xA78 JUMP JUMPDEST JUMPDEST PUSH2 0xC80 DUP3 SLOAD PUSH2 0x9D0 JUMP JUMPDEST PUSH2 0xC8B DUP3 DUP3 DUP6 PUSH2 0xBC6 JUMP JUMPDEST PUSH1 0x0 PUSH1 0x1F DUP4 GT PUSH1 0x1 DUP2 EQ PUSH2 0xCBA JUMPI PUSH1 0x0 DUP5 ISZERO PUSH2 0xCA8 JUMPI DUP3 DUP8 ADD CALLDATALOAD SWAP1 POP JUMPDEST PUSH2 0xCB2 DUP6 DUP3 PUSH2 0xC37 JUMP JUMPDEST DUP7 SSTORE POP PUSH2 0xD1A JUMP JUMPDEST PUSH1 0x1F NOT DUP5 AND PUSH2 0xCC8 DUP7 PUSH2 0xAA7 JUMP JUMPDEST PUSH1 0x0 JUMPDEST DUP3 DUP2 LT ISZERO PUSH2 0xCF0 JUMPI DUP5 DUP10 ADD CALLDATALOAD DUP3 SSTORE PUSH1 0x1 DUP3 ADD SWAP2 POP PUSH1 0x20 DUP6 ADD SWAP5 POP PUSH1 0x20 DUP2 ADD SWAP1 POP PUSH2 0xCCB JUMP JUMPDEST DUP7 DUP4 LT ISZERO PUSH2 0xD0D JUMPI DUP5 DUP10 ADD CALLDATALOAD PUSH2 0xD09 PUSH1 0x1F DUP10 AND DUP3 PUSH2 0xC19 JUMP JUMPDEST DUP4 SSTORE POP JUMPDEST PUSH1 0x1 PUSH1 0x2 DUP9 MUL ADD DUP9 SSTORE POP POP POP JUMPDEST POP POP POP POP POP POP POP JUMP JUMPDEST DUP3 DUP2 DUP4 CALLDATACOPY PUSH1 0x0 DUP4 DUP4 ADD MSTORE POP POP POP JUMP JUMPDEST PUSH1 0x0 PUSH2 0xD3E DUP4 DUP6 PUSH2 0x935 JUMP JUMPDEST SWAP4 POP PUSH2 0xD4B DUP4 DUP6 DUP5 PUSH2 0xD23 JUMP JUMPDEST PUSH2 0xD54 DUP4 PUSH2 0x781 JUMP JUMPDEST DUP5 ADD SWAP1 POP SWAP4 SWAP3 POP POP POP JUMP JUMPDEST PUSH1 0x0 PUSH1 0x20 DUP3 ADD SWAP1 POP DUP2 DUP2 SUB PUSH1 0x0 DUP4 ADD MSTORE PUSH2 0xD7A DUP2 DUP5 DUP7 PUSH2 0xD32 JUMP JUMPDEST SWAP1 POP SWAP4 SWAP3 POP POP POP JUMP JUMPDEST PUSH32 0x4E487B7100000000000000000000000000000000000000000000000000000000 PUSH1 0x0 MSTORE PUSH1 0x11 PUSH1 0x4 MSTORE PUSH1 0x24 PUSH1 0x0 REVERT JUMPDEST PUSH1 0x0 PUSH2 0xDBD DUP3 PUSH2 0x582 JUMP JUMPDEST SWAP2 POP PUSH2 0xDC8 DUP4 PUSH2 0x582 JUMP JUMPDEST SWAP3 POP DUP3 DUP3 SUB SWAP1 POP DUP2 DUP2 GT ISZERO PUSH2 0xDE0 JUMPI PUSH2 0xDDF PUSH2 0xD83 JUMP JUMPDEST JUMPDEST SWAP3 SWAP2 POP POP JUMP JUMPDEST PUSH32 0x4E487B7100000000000000000000000000000000000000000000000000000000 PUSH1 0x0 MSTORE PUSH1 0x32 PUSH1 0x4 MSTORE PUSH1 0x24 PUSH1 0x0 REVERT INVALID LOG2 PUSH5 0x6970667358 0x22 SLT KECCAK256 CALLER INVALID 0xF9 CALLER TIMESTAMP 0xE0 LOG1 CALL GASLIMIT 0x2F SELFDESTRUCT 0xEE PUSH13 0x566B3BC26F0FA8402BBB746FA4 SWAP5 SAR ADD CALLVALUE DELEGATECALL 0x5C PUSH5 0x736F6C6343 STOP ADDMOD SGT STOP CALLER "
		},
		"gasEstimates": {
			"creation": {
				"codeDepositCost": "731800",
				"executionCost": "766",
				"totalCost": "732566"
			},
			"external": {
				"checkETHBalance(address)": "3257",
				"getLatestStoredText()": "infinite",
				"giveEther(address)": "infinite",
				"retrieve()": "2438",
				"retrieveAllStoredText()": "infinite",
				"store(uint256)": "22565",
				"storeText(string)": "infinite"
			}
		},
		"methodIdentifiers": {
			"checkETHBalance(address)": "62a35d72",
			"getLatestStoredText()": "f8b3bd30",
			"giveEther(address)": "56485436",
			"retrieve()": "2e64cec1",
			"retrieveAllStoredText()": "931c7733",
			"store(uint256)": "6057361d",
			"storeText(string)": "d9290e48"
		}
	},
	"abi": [
		{
			"anonymous": false,
			"inputs": [
				{
					"indexed": true,
					"internalType": "address",
					"name": "user",
					"type": "address"
				},
				{
					"indexed": false,
					"internalType": "string",
					"name": "value",
					"type": "string"
				}
			],
			"name": "StringStored",
			"type": "event"
		},
		{
			"inputs": [
				{
					"internalType": "address",
					"name": "_account",
					"type": "address"
				}
			],
			"name": "checkETHBalance",
			"outputs": [
				{
					"internalType": "uint256",
					"name": "",
					"type": "uint256"
				}
			],
			"stateMutability": "view",
			"type": "function"
		},
		{
			"inputs": [],
			"name": "getLatestStoredText",
			"outputs": [
				{
					"internalType": "string",
					"name": "",
					"type": "string"
				}
			],
			"stateMutability": "view",
			"type": "function"
		},
		{
			"inputs": [
				{
					"internalType": "address payable",
					"name": "_receiver",
					"type": "address"
				}
			],
			"name": "giveEther",
			"outputs": [],
			"stateMutability": "payable",
			"type": "function"
		},
		{
			"inputs": [],
			"name": "retrieve",
			"outputs": [
				{
					"internalType": "uint256",
					"name": "",
					"type": "uint256"
				}
			],
			"stateMutability": "view",
			"type": "function"
		},
		{
			"inputs": [],
			"name": "retrieveAllStoredText",
			"outputs": [
				{
					"internalType": "string[]",
					"name": "",
					"type": "string[]"
				}
			],
			"stateMutability": "view",
			"type": "function"
		},
		{
			"inputs": [
				{
					"internalType": "uint256",
					"name": "num",
					"type": "uint256"
				}
			],
			"name": "store",
			"outputs": [],
			"stateMutability": "nonpayable",
			"type": "function"
		},
		{
			"inputs": [
				{
					"internalType": "string",
					"name": "_value",
					"type": "string"
				}
			],
			"name": "storeText",
			"outputs": [],
			"stateMutability": "nonpayable",
			"type": "function"
		}
	]
}